{
  "_format": "hh3-artifact-1",
  "contractName": "Payment",
  "sourceName": "contracts/Payment.sol",
  "abi": [
    {
      "inputs": [],
      "stateMutability": "nonpayable",
      "type": "constructor"
    },
    {
      "inputs": [
        {
          "internalType": "address",
          "name": "owner",
          "type": "address"
        }
      ],
      "name": "OwnableInvalidOwner",
      "type": "error"
    },
    {
      "inputs": [
        {
          "internalType": "address",
          "name": "account",
          "type": "address"
        }
      ],
      "name": "OwnableUnauthorizedAccount",
      "type": "error"
    },
    {
      "inputs": [],
      "name": "ReentrancyGuardReentrantCall",
      "type": "error"
    },
    {
      "anonymous": false,
      "inputs": [
        {
          "indexed": true,
          "internalType": "address",
          "name": "previousOwner",
          "type": "address"
        },
        {
          "indexed": true,
          "internalType": "address",
          "name": "newOwner",
          "type": "address"
        }
      ],
      "name": "OwnershipTransferred",
      "type": "event"
    },
    {
      "anonymous": false,
      "inputs": [
        {
          "indexed": false,
          "internalType": "string",
          "name": "orderId",
          "type": "string"
        },
        {
          "indexed": false,
          "internalType": "uint256",
          "name": "amount",
          "type": "uint256"
        },
        {
          "indexed": true,
          "internalType": "address",
          "name": "payer",
          "type": "address"
        },
        {
          "indexed": false,
          "internalType": "uint256",
          "name": "timestamp",
          "type": "uint256"
        }
      ],
      "name": "PaymentReceived",
      "type": "event"
    },
    {
      "anonymous": false,
      "inputs": [
        {
          "indexed": true,
          "internalType": "address",
          "name": "to",
          "type": "address"
        },
        {
          "indexed": false,
          "internalType": "uint256",
          "name": "amount",
          "type": "uint256"
        },
        {
          "indexed": false,
          "internalType": "uint256",
          "name": "timestamp",
          "type": "uint256"
        }
      ],
      "name": "Withdrawal",
      "type": "event"
    },
    {
      "stateMutability": "payable",
      "type": "fallback"
    },
    {
      "inputs": [
        {
          "internalType": "string",
          "name": "orderId",
          "type": "string"
        }
      ],
      "name": "getPayment",
      "outputs": [
        {
          "internalType": "string",
          "name": "",
          "type": "string"
        },
        {
          "internalType": "uint256",
          "name": "",
          "type": "uint256"
        },
        {
          "internalType": "address",
          "name": "",
          "type": "address"
        },
        {
          "internalType": "uint256",
          "name": "",
          "type": "uint256"
        }
      ],
      "stateMutability": "view",
      "type": "function"
    },
    {
      "inputs": [],
      "name": "getPaymentCount",
      "outputs": [
        {
          "internalType": "uint256",
          "name": "",
          "type": "uint256"
        }
      ],
      "stateMutability": "view",
      "type": "function"
    },
    {
      "inputs": [],
      "name": "owner",
      "outputs": [
        {
          "internalType": "address",
          "name": "",
          "type": "address"
        }
      ],
      "stateMutability": "view",
      "type": "function"
    },
    {
      "inputs": [
        {
          "internalType": "string",
          "name": "orderId",
          "type": "string"
        }
      ],
      "name": "pay",
      "outputs": [],
      "stateMutability": "payable",
      "type": "function"
    },
    {
      "inputs": [
        {
          "internalType": "uint256",
          "name": "",
          "type": "uint256"
        }
      ],
      "name": "paymentOrderIds",
      "outputs": [
        {
          "internalType": "string",
          "name": "",
          "type": "string"
        }
      ],
      "stateMutability": "view",
      "type": "function"
    },
    {
      "inputs": [
        {
          "internalType": "string",
          "name": "",
          "type": "string"
        }
      ],
      "name": "payments",
      "outputs": [
        {
          "internalType": "string",
          "name": "orderId",
          "type": "string"
        },
        {
          "internalType": "uint256",
          "name": "amount",
          "type": "uint256"
        },
        {
          "internalType": "address",
          "name": "payer",
          "type": "address"
        },
        {
          "internalType": "uint256",
          "name": "timestamp",
          "type": "uint256"
        }
      ],
      "stateMutability": "view",
      "type": "function"
    },
    {
      "inputs": [],
      "name": "renounceOwnership",
      "outputs": [],
      "stateMutability": "nonpayable",
      "type": "function"
    },
    {
      "inputs": [],
      "name": "totalReceived",
      "outputs": [
        {
          "internalType": "uint256",
          "name": "",
          "type": "uint256"
        }
      ],
      "stateMutability": "view",
      "type": "function"
    },
    {
      "inputs": [
        {
          "internalType": "address",
          "name": "newOwner",
          "type": "address"
        }
      ],
      "name": "transferOwnership",
      "outputs": [],
      "stateMutability": "nonpayable",
      "type": "function"
    },
    {
      "inputs": [
        {
          "internalType": "uint256",
          "name": "amount",
          "type": "uint256"
        }
      ],
      "name": "withdraw",
      "outputs": [],
      "stateMutability": "nonpayable",
      "type": "function"
    },
    {
      "inputs": [],
      "name": "withdrawAll",
      "outputs": [],
      "stateMutability": "nonpayable",
      "type": "function"
    },
    {
      "stateMutability": "payable",
      "type": "receive"
    }
  ],
  "bytecode": "0x6080604052348015600e575f5ffd5b503380603357604051631e4fbdf760e01b81525f600482015260240160405180910390fd5b603a816043565b50600180556092565b5f80546001600160a01b038381166001600160a01b0319831681178455604051919092169283917f8be0079c531659141344cd1fd0a4f28419497f9722a3daafe3b4186f6b6457e09190a35050565b61103e8061009f5f395ff3fe60806040526004361061009f575f3560e01c80639e26fb33116100635780639e26fb3314610164578063a3c2c46214610190578063af32a03f146101b3578063c69207a3146101c7578063f2fde38b146101f6578063f946871314610215576100c5565b80632b66d72e146100dd5780632e1a7d4d146100f2578063715018a614610111578063853828b6146101255780638da5cb5b14610139576100c5565b366100c55760405162461bcd60e51b81526004016100bc90610b1b565b60405180910390fd5b60405162461bcd60e51b81526004016100bc90610b1b565b6100f06100eb366004610b67565b610234565b005b3480156100fd575f5ffd5b506100f061010c366004610bd5565b61048c565b34801561011c575f5ffd5b506100f061060d565b348015610130575f5ffd5b506100f0610620565b348015610144575f5ffd5b505f546040516001600160a01b0390911681526020015b60405180910390f35b34801561016f575f5ffd5b5061018361017e366004610bd5565b61076f565b60405161015b9190610c1a565b34801561019b575f5ffd5b506101a560045481565b60405190815260200161015b565b3480156101be575f5ffd5b506003546101a5565b3480156101d2575f5ffd5b506101e66101e1366004610b67565b610815565b60405161015b9493929190610c33565b348015610201575f5ffd5b506100f0610210366004610c6a565b610977565b348015610220575f5ffd5b506101e661022f366004610ca4565b6109b1565b61023c610a76565b5f341161025b5760405162461bcd60e51b81526004016100bc90610d57565b806102b45760405162461bcd60e51b815260206004820152602360248201527f5061796d656e743a206f72646572204944206d757374206e6f7420626520656d60448201526270747960e81b60648201526084016100bc565b600282826040516102c6929190610d9d565b9081526020016040518091039020600101545f146103265760405162461bcd60e51b815260206004820181905260248201527f5061796d656e743a206f7264657220494420616c72656164792065786973747360448201526064016100bc565b604051806080016040528083838080601f0160208091040260200160405190810160405280939291908181526020018383808284375f920191909152505050908252503460208201523360408083019190915242606090920191909152516002906103949085908590610d9d565b908152604051908190036020019020815181906103b19082610e30565b50602082015160018281019190915560408301516002830180546001600160a01b0319166001600160a01b03909216919091179055606090920151600391820155805491820181555f527fc2575a0e9e593c00f959f8c92f12db2869c3395a3b0502d05e2516446f71f85b01610428828483610eeb565b503460045f82825461043a9190610fa5565b909155505060405133907f5a78d2cda6e0a82865c794bbe77e33267b5cf3e5a86db6d68eac598b3f75498590610477908590859034904290610fca565b60405180910390a261048860018055565b5050565b610494610aa0565b61049c610a76565b5f81116104bb5760405162461bcd60e51b81526004016100bc90610d57565b4781111561051a5760405162461bcd60e51b815260206004820152602660248201527f5061796d656e743a20696e73756666696369656e7420636f6e74726163742062604482015265616c616e636560d01b60648201526084016100bc565b5f80546040516001600160a01b039091169083908381818185875af1925050503d805f8114610564576040519150601f19603f3d011682016040523d82523d5f602084013e610569565b606091505b50509050806105ba5760405162461bcd60e51b815260206004820152601a60248201527f5061796d656e743a207769746864726177616c206661696c656400000000000060448201526064016100bc565b5f54604080518481524260208201526001600160a01b03909216917fdf273cb619d95419a9cd0ec88123a0538c85064229baa6363788f743fff90deb910160405180910390a25061060a60018055565b50565b610615610aa0565b61061e5f610acc565b565b610628610aa0565b610630610a76565b478061067e5760405162461bcd60e51b815260206004820152601f60248201527f5061796d656e743a206e6f2062616c616e636520746f2077697468647261770060448201526064016100bc565b5f80546040516001600160a01b039091169083908381818185875af1925050503d805f81146106c8576040519150601f19603f3d011682016040523d82523d5f602084013e6106cd565b606091505b505090508061071e5760405162461bcd60e51b815260206004820152601a60248201527f5061796d656e743a207769746864726177616c206661696c656400000000000060448201526064016100bc565b5f54604080518481524260208201526001600160a01b03909216917fdf273cb619d95419a9cd0ec88123a0538c85064229baa6363788f743fff90deb910160405180910390a2505061061e60018055565b6003818154811061077e575f80fd5b905f5260205f20015f91509050805461079690610dac565b80601f01602080910402602001604051908101604052809291908181526020018280546107c290610dac565b801561080d5780601f106107e45761010080835404028352916020019161080d565b820191905f5260205f20905b8154815290600101906020018083116107f057829003601f168201915b505050505081565b60605f5f5f5f6002878760405161082d929190610d9d565b90815260200160405180910390206040518060800160405290815f8201805461085590610dac565b80601f016020809104026020016040519081016040528092919081815260200182805461088190610dac565b80156108cc5780601f106108a3576101008083540402835291602001916108cc565b820191905f5260205f20905b8154815290600101906020018083116108af57829003601f168201915b5050509183525050600182015460208083019190915260028301546001600160a01b031660408301526003909201546060909101528101519091505f036109555760405162461bcd60e51b815260206004820181905260248201527f5061796d656e743a206f7264657220494420646f6573206e6f7420657869737460448201526064016100bc565b8051602082015160408301516060909301519199909850919650945092505050565b61097f610aa0565b6001600160a01b0381166109a857604051631e4fbdf760e01b81525f60048201526024016100bc565b61060a81610acc565b80516020818301810180516002825292820191909301209152805481906109d790610dac565b80601f0160208091040260200160405190810160405280929190818152602001828054610a0390610dac565b8015610a4e5780601f10610a2557610100808354040283529160200191610a4e565b820191905f5260205f20905b815481529060010190602001808311610a3157829003601f168201915b5050505060018301546002840154600390940154929390926001600160a01b03909116915084565b600260015403610a9957604051633ee5aeb560e01b815260040160405180910390fd5b6002600155565b5f546001600160a01b0316331461061e5760405163118cdaa760e01b81523360048201526024016100bc565b5f80546001600160a01b038381166001600160a01b0319831681178455604051919092169283917f8be0079c531659141344cd1fd0a4f28419497f9722a3daafe3b4186f6b6457e09190a35050565b6020808252602c908201527f5061796d656e743a207573652070617928292066756e6374696f6e20746f207360408201526b656e64207061796d656e747360a01b606082015260800190565b5f5f60208385031215610b78575f5ffd5b823567ffffffffffffffff811115610b8e575f5ffd5b8301601f81018513610b9e575f5ffd5b803567ffffffffffffffff811115610bb4575f5ffd5b856020828401011115610bc5575f5ffd5b6020919091019590945092505050565b5f60208284031215610be5575f5ffd5b5035919050565b5f81518084528060208401602086015e5f602082860101526020601f19601f83011685010191505092915050565b602081525f610c2c6020830184610bec565b9392505050565b608081525f610c456080830187610bec565b6020830195909552506001600160a01b03929092166040830152606090910152919050565b5f60208284031215610c7a575f5ffd5b81356001600160a01b0381168114610c2c575f5ffd5b634e487b7160e01b5f52604160045260245ffd5b5f60208284031215610cb4575f5ffd5b813567ffffffffffffffff811115610cca575f5ffd5b8201601f81018413610cda575f5ffd5b803567ffffffffffffffff811115610cf457610cf4610c90565b604051601f8201601f19908116603f0116810167ffffffffffffffff81118282101715610d2357610d23610c90565b604052818152828201602001861015610d3a575f5ffd5b816020840160208301375f91810160200191909152949350505050565b60208082526026908201527f5061796d656e743a20616d6f756e74206d75737420626520677265617465722060408201526507468616e20360d41b606082015260800190565b818382375f9101908152919050565b600181811c90821680610dc057607f821691505b602082108103610dde57634e487b7160e01b5f52602260045260245ffd5b50919050565b601f821115610e2b57805f5260205f20601f840160051c81016020851015610e095750805b601f840160051c820191505b81811015610e28575f8155600101610e15565b50505b505050565b815167ffffffffffffffff811115610e4a57610e4a610c90565b610e5e81610e588454610dac565b84610de4565b6020601f821160018114610e90575f8315610e795750848201515b5f19600385901b1c1916600184901b178455610e28565b5f84815260208120601f198516915b82811015610ebf5787850151825560209485019460019092019101610e9f565b5084821015610edc57868401515f19600387901b60f8161c191681555b50505050600190811b01905550565b67ffffffffffffffff831115610f0357610f03610c90565b610f1783610f118354610dac565b83610de4565b5f601f841160018114610f48575f8515610f315750838201355b5f19600387901b1c1916600186901b178355610e28565b5f83815260208120601f198716915b82811015610f775786850135825560209485019460019092019101610f57565b5086821015610f93575f1960f88860031b161c19848701351681555b505060018560011b0183555050505050565b80820180821115610fc457634e487b7160e01b5f52601160045260245ffd5b92915050565b60608152836060820152838560808301375f608085830101525f6080601f19601f87011683010190508360208301528260408301529594505050505056fea26469706673582212206ef97cc46be7bdd16c04ec6e5f2cba36f342fa26a854cab82fedb71d487c363364736f6c634300081c0033",
  "linkReferences": {},
  "deployedLinkReferences": {},
  "immutableReferences": {},
  "inputSourceName": "project/contracts/Payment.sol",
  "buildInfoId": "solc-0_8_28-0ddc6dc5a1016738c230522901ea5b19a07edea3"
}